:100000000C9434000C943E000C943E000C943E0082
:100010000C943E000C943E000C943E000C943E0068
:100020000C943E000C943E000C943E000C943E0058
:100030000C943E000C943E000C943E000C943E0048
:100040000C943E000C943E000C943E000C943E0038
:100050000C943E000C943E000C943E000C943E0028
:100060000C943E000C943E0011241FBECFEFD8E04C
:10007000DEBFCDBF0E9477000C94A2000C9400005C
:10008000CF93DF93CDB7DEB728970FB6F894DEBFD6
:100090000FBECDBF6D837E838F8398878FEF9FEFD9
:1000A000DC0189839A83AB83BC8389819A81AB818C
:1000B000BC810196A11DB11D89839A83AB83BC834A
:1000C00029813A814B815C818D819E81AF81B88588
:1000D000281739074A075B0744F3000028960FB634
:1000E000F894DEBF0FBECDBFDF91CF910895CF93BF
:1000F000DF9300D000D0CDB7DEB79A8389837C83AD
:100100006B8360E87AE186E090E00E94400085E23F
:1001100090E025E230E0F901308128E02327FC015E
:10012000208384E290E024E230E0F901308128E08D
:100130002327FC01208360E87AE186E090E00E94BA
:080140004000DFCFF894FFCF6F
:00000001FF
